:020000040800F2
:1000000000C0002095920008419100084D91000821
:1000100053910008599100085F910008000000000A
:1000200000000000000000000000000065910008D2
:1000300071910008000000007D910008899100087E
:10004000DD920008DD920008DD920008DD920008D4
:10005000DD920008DD92000895910008DD9200080D
:10006000DD920008DD920008DD920008DD920008B4
:10007000DD920008DD920008DD920008DD920008A4
:10008000DD920008DD920008DD920008DD92000894
:10009000DD920008DD920008DD920008A3910008BF
:1000A000DD920008DD920008DD920008DD92000874
:1000B000DD920008DD920008DD920008DD92000864
:1000C000DD920008DD920008DD920008DD92000854
:1000D000DD920008B1910008DD920008DD92000871
:1000E000C5910008DD920008DD920008DD9200084D
:1000F000DD920008DD920008DD920008DD92000824
:10010000DD920008DD920008DD920008DD92000813
:10011000DD920008DD920008DD920008DD92000803
:10012000DD920008DD920008DD920008DD920008F3
:1001300000000000000000000000000000000000BF
:1001400000000000000000000000000000000000AF
:10015000000000000000000000000000000000009F
:10016000000000000000000000000000000000008F
:10017000000000000000000000000000000000007F
:10018000000000000000000000000000000000006F
:10019000000000000000000000000000000000005F
:1001A000000000000000000000000000000000004F
:1001B000000000000000000000000000000000003F
:1001C000000000000000000000000000000000002F
:1001D000000000000000000000000000000000001F
:0401E0005FF8E0F1F3
:1001E80010B5054C237833B9044B13B10448AFF369
:1001F80000800123237010BD78000020000000005B
:100208004495000808B5034B1BB103490348AFF3F5
:10021800008008BD000000007C0000204495000814
:1002280081F0004102E000BF83F0004330B54FEA9F
:1002380041044FEA430594EA050F08BF90EA020F0C
:100248001FBF54EA000C55EA020C7FEA645C7FEA9F
:10025800655C00F0E2804FEA5454D4EB5555B8BFC2
:100268006D420CDD2C4480EA020281EA030382EA33
:10027800000083EA010180EA020281EA0303362DC5
:1002880088BF30BD11F0004F4FEA01314FF4801C98
:100298004CEA113102D0404261EB410113F0004FAA
:1002A8004FEA03334CEA133302D0524263EB430361
:1002B80094EA050F00F0A780A4F10104D5F1200EFF
:1002C8000DDB02FA0EFC22FA05F2801841F100015A
:1002D80003FA0EF2801843FA05F359410EE0A5F12E
:1002E80020050EF1200E012A03FA0EFC28BF4CF05F
:1002F800020C43FA05F3C01851EBE37101F0004515
:1003080007D54FF0000EDCF1000C7EEB00006EEB21
:100318000101B1F5801F1BD3B1F5001F0CD34908AB
:100328005FEA30004FEA3C0C04F101044FEA445202
:1003380012F5800F80F09A80BCF1004F08BF5FEA89
:10034800500C50F1000041EB045141EA050130BD69
:100358005FEA4C0C404141EB010111F4801FA4F10C
:100368000104E9D191F0000F04BF01460020B1FA61
:1003780081F308BF2033A3F10B03B3F120020CDA99
:100388000C3208DD02F1140CC2F10C0201FA0CF077
:1003980021FA02F10CE002F11402D8BFC2F1200CDC
:1003A80001FA02F120FA0CFCDCBF41EA0C01904092
:1003B800E41AA2BF01EB0451294330BD6FEA0404DB
:1003C8001F3C1CDA0C340EDC04F11404C4F12002C6
:1003D80020FA04F001FA02F340EA030021FA04F3D8
:1003E80045EA030130BDC4F10C04C4F1200220FA2F
:1003F80002F001FA04F340EA0300294630BD21FA6D
:1004080004F0294630BD94F0000F83F4801306BF32
:1004180081F480110134013D4EE77FEA645C18BF26
:100428007FEA655C29D094EA050F08BF90EA020FBD
:1004380005D054EA000C04BF1946104630BD91EAB5
:10044800030F1EBF0021002030BD5FEA545C05D1B8
:100458004000494128BF41F0004130BD14F58004F7
:100468003CBF01F5801130BD01F0004545F0FE416B
:1004780041F470014FF0000030BD7FEA645C1ABFA0
:10048800194610467FEA655C1CBF0B46024650EAD7
:10049800013406BF52EA033591EA030F41F4002103
:1004A80030BD00BF90F0000F04BF0021704730B589
:1004B8004FF4806404F132044FF000054FF000015E
:1004C80050E700BF90F0000F04BF0021704730B51F
:1004D8004FF4806404F1320410F0004548BF4042F4
:1004E8004FF000013EE700BF42004FEAE2014FEA49
:1004F80031014FEA02701FBF12F07F4393F07F4F24
:1005080081F06051704732F07F4208BF704793F026
:100518007F4F04BF41F40021704730B54FF4607439
:1005280001F0004521F000411CE700BF50EA01023C
:1005380008BF704730B54FF000050AE050EA0102E5
:1005480008BF704730B511F0004502D5404261EB55
:1005580041014FF4806404F132045FEA915C3FF496
:10056800D8AE4FF003025FEADC0C18BF03325FEA33
:10057800DC0C18BF033202EBDC02C2F1200300FAE4
:1005880003FC20FA02F001FA03FE40EA0E0021FA09
:1005980002F11444BDE600BF70B54FF0FF0C4CF4F7
:1005A800E06C1CEA11541DBF1CEA135594EA0C0FA9
:1005B80095EA0C0F00F0DEF82C4481EA030621EAE4
:1005C8004C5123EA4C5350EA013518BF52EA03351F
:1005D80041F4801143F4801338D0A0FB02CE4FF0D1
:1005E8000005E1FB02E506F00042E0FB03E54FF001
:1005F8000006E1FB03569CF0000F18BF4EF0010EF9
:10060800A4F1FF04B6F5007F64F5407404D25FEAF4
:100618004E0E6D4146EB060642EAC62141EA5551A7
:100628004FEAC52040EA5E504FEACE2EB4F1FD0CE9
:1006380088BFBCF5E06F1ED8BEF1004F08BF5FEA67
:10064800500E50F1000041EB045170BD06F0004619
:1006580046EA010140EA020081EA0301B4EB5C04C6
:10066800C2BFD4EB0C0541EA045170BD41F48011BE
:100678004FF0000E013C00F3AB8014F1360FDEBFE3
:10068800002001F0004170BDC4F10004203C35DABF
:100698000C341BDC04F11404C4F1200500FA05F342
:1006A80020FA04F001FA05F240EA020001F00042E3
:1006B80021F0004110EBD37021FA04F642EB060159
:1006C8005EEA430E08BF20EAD37070BDC4F10C0483
:1006D800C4F1200500FA04F320FA05F001FA04F247
:1006E80040EA020001F0004110EBD37041F1000133
:1006F8005EEA430E08BF20EAD37070BDC4F120053E
:1007080000FA05F24EEA020E20FA04F301FA05F2A5
:1007180043EA020321FA04F001F0004121FA04F24D
:1007280020EA020000EBD3705EEA430E08BF20EA1D
:10073800D37070BD94F0000F0FD101F00046400057
:1007480041EB010111F4801F08BF013CF7D041EAD9
:10075800060195F0000F18BF704703F000465200DD
:1007680043EB030313F4801F08BF013DF7D043EAAE
:100778000603704794EA0C0F0CEA135518BF95EA64
:100788000C0F0CD050EA410618BF52EA4306D1D1EB
:1007980081EA030101F000414FF0000070BD50EA0A
:1007A800410606BF1046194652EA430619D094EA94
:1007B8000C0F02D150EA013613D195EA0C0F05D17E
:1007C80052EA03361CBF104619460AD181EA0301D2
:1007D80001F0004141F0FE4141F470014FF000008A
:1007E80070BD41F0FE4141F4780170BD70B54FF025
:1007F800FF0C4CF4E06C1CEA11541DBF1CEA1355A5
:1008080094EA0C0F95EA0C0F00F0A7F8A4EB050486
:1008180081EA030E52EA03354FEA013100F088807D
:100828004FEA03334FF0805545EA131343EA126346
:100838004FEA022245EA111545EA10654FEA0026FB
:100848000EF000419D4208BF964244F1FD0404F5B4
:10085800407402D25B084FEA3202B61A65EB030510
:100868005B084FEA32024FF480104FF4002CB6EBCD
:10087800020E75EB030E22BFB61A754640EA0C004D
:100888005B084FEA3202B6EB020E75EB030E22BF8D
:10089800B61A754640EA5C005B084FEA3202B6EBCE
:1008A800020E75EB030E22BFB61A754640EA9C008D
:1008B8005B084FEA3202B6EB020E75EB030E22BF5D
:1008C800B61A754640EADC0055EA060E18D04FEA1B
:1008D800051545EA16754FEA06164FEAC30343EABB
:1008E80052734FEAC2025FEA1C1CC0D111F4801F88
:1008F8000BD141EA00014FF000004FF0004CB6E781
:1009080011F4801F04BF01430020B4F1FD0C88BF1F
:10091800BCF5E06F3FF6AFAEB5EB030C04BFB6EB2A
:10092800020C5FEA500C50F1000041EB045170BD1D
:100938000EF0004E4EEA113114EB5C04C2BFD4EB4A
:100948000C0541EA045170BD41F480114FF0000ECE
:10095800013C90E645EA060E8DE60CEA135594EA4A
:100968000C0F08BF95EA0C0F3FF43BAF94EA0C0F4D
:100978000AD150EA01347FF434AF95EA0C0F7FF4C2
:1009880025AF104619462CE795EA0C0F06D152EA16
:1009980003353FF4FDAE1046194622E750EA4106FA
:1009A80018BF52EA43067FF4C5AE50EA41047FF40B
:1009B8000DAF52EA43057FF4EBAE12E74A0011D2BD
:1009C80012F5001211D20DD56FF47873B3EB6252A1
:1009D8000ED44FEAC12343F0004343EA505323FAAD
:1009E80002F070474FF00000704750EA013002D122
:1009F8004FF0FF3070474FF00000704780B500AFF0
:100A0800084B1B68074A43F010031360032000F0EB
:100A180045F9002000F008F808F05AFB00231846B2
:100A280080BD00BF0020024080B582B000AF786072
:100A3800124B1A68124B1B7819464FF47A73B3FBA2
:100A4800F1F3B2FBF3F3184600F05DF90346002B0F
:100A580001D001230EE07B680F2B0AD800227968A9
:100A68004FF0FF3000F025F9064A7B681360002339
:100A780000E0012318460837BD4680BD100000205D
:100A8800040000200000002080B400AF054B1B7854
:100A98001A46054B1B681344034A136000BFBD4642
:100AA80080BC704704000020A400002080B400AF80
:100AB800024B1B681846BD4680BC7047A400002046
:100AC80080B584B000AF7860FFF7F0FFB8607B684E
:100AD800FB60FB68B3F1FF3F05D0094B1B781A4652
:100AE800FB681344FB6000BFFFF7E0FF0246BB68EA
:100AF800D31AFA689A42F7D800BF1037BD4680BDAE
:100B08000400002080B485B000AF78607B6803F0F3
:100B18000703FB600C4BDB68BB60BA684FF6FF034A
:100B28001340BB60FB681A02BB68134343F0BF6302
:100B380043F40033BB60044ABB68D36000BF14377A
:100B4800BD4680BC704700BF00ED00E080B400AF38
:100B5800044BDB681B0A03F007031846BD4680BC3C
:100B6800704700BF00ED00E080B483B000AF0346DB
:100B7800FB7197F90730002B0BDBFB7903F01F02A1
:100B8800064997F907305B09012000FA02F241F89B
:100B9800232000BF0C37BD4680BC704700E100E051
:100BA80080B483B000AF03463960FB7197F9073012
:100BB800002B0ADB3B68DAB20C4997F907301201BF
:100BC800D2B20B4483F800230AE03B68DAB2084942
:100BD800FB7903F00F03043B1201D2B20B441A76DF
:100BE80000BF0C37BD4680BC704700BF00E100E085
:100BF80000ED00E080B489B000AFF860B9607A60B9
:100C0800FB6803F00703FB61FB69C3F10703042BCF
:100C180028BF0423BB61FB690433062B02D9FB6997
:100C2800033B00E000237B614FF0FF32BB6902FA0F
:100C380003F3DA43BB681A407B699A404FF0FF31EF
:100C48007B6901FA03F3D9437B680B4013431846C9
:100C58002437BD4680BC704780B582B000AF78604D
:100C68007B68013BB3F1807F01D301230FE00A4A7F
:100C78007B68013B53600F214FF0FF30FFF790FF77
:100C8800054B00229A60044B07221A60002318467D
:100C98000837BD4680BD00BF10E000E080B582B0D7
:100CA80000AF78607868FFF72DFF00BF0837BD46B2
:100CB80080BD80B586B000AF0346B9607A60FB732B
:100CC80000237B61FFF742FF78617A68B968786929
:100CD800FFF790FF024697F90F3011461846FFF7C5
:100CE8005FFF00BF1837BD4680BD80B582B000AF3A
:100CF8000346FB7197F907301846FFF735FF00BF29
:100D08000837BD4680BD80B582B000AF786078688E
:100D1800FFF7A2FF034618460837BD4680BD00000E
:100D280080B584B000AF78600023FB737B6893F8CC
:100D38002130022B05D07B6804229A630123FB73C0
:100D4800D6E07B681B681A687B681B6822F00E0275
:100D58001A607B681B681A687B681B6822F00102AE
:100D68001A607B681B681A46644B9A4258D97B689C
:100D78001B68634A93424FD07B681B68614A934261
:100D880048D07B681B68604A934240D07B681B68E8
:100D98005E4A934238D07B681B685D4A934230D0E4
:100DA8007B681B685B4A934228D07B681B68534A60
:100DB800934220D07B681B68574A934219D07B68BE
:100DC8001B68564A934212D07B681B68544A934268
:100DD8000AD07B681B68534A934202D14FF4805370
:100DE8001BE04FF4803318E04FF4807315E01023B4
:100DF80013E0012311E04FF080730EE04FF48013ED
:100E08000BE04FF4803308E04FF4805305E04FF4D3
:100E1800807302E0102300E00123434A536057E047
:100E28007B681B68364A93424FD07B681B68354AFB
:100E3800934248D07B681B68334A934240D07B6812
:100E48001B68324A934238D07B681B68304A934209
:100E580030D07B681B682F4A934228D07B681B6878
:100E6800264A934220D07B681B682B4A934219D0AC
:100E78007B681B68294A934212D07B681B68284A02
:100E880093420AD07B681B68264A934202D14FF4EA
:100E980080531BE04FF4803318E04FF4807315E063
:100EA800102313E0012311E04FF080730EE04FF49C
:100EB80080130BE04FF4803308E04FF4805305E0D3
:100EC8004FF4807302E0102300E00123174A5360B7
:100ED8007B68012283F821207B68002283F8202088
:100EE8007B685B6B002B03D07B685B6B78689847EB
:100EF800FB7B18461037BD4680BD00BF800002400E
:100F0800080002401C000240300002404400024039
:100F1800580002406C000240080402401C040240D1
:100F28003004024044040240000402400000024031
:100F380080B48BB000AF7860396000237B620023F7
:100F48003B6233E101227B6A02FA03F3FB613B68EF
:100F58001B68FA691340BB61BA69FB699A4240F0A1
:100F680022813B685B68122B34D0122B0DD8022BE0
:100F78002BD0022B04D8002B31D0012B1CD048E0F9
:100F8800032B43D0112B1BD043E08F4A934226D02A
:100F98008D4A934206D88D4A934220D08C4A934278
:100FA8001DD036E08B4A934219D08B4A934216D013
:100FB8008A4A934213D02CE03B68DB683B6228E006
:100FC8003B68DB6804333B6223E03B68DB6808333B
:100FD8003B621EE03B68DB680C333B6219E03B6810
:100FE8009B68002B02D104233B6212E03B689B689C
:100FF800012B05D108233B627B68FA691A6108E076
:1010080008233B627B68FA695A6102E000233B626D
:1010180000BFBB69FF2B01D87B6801E07B68043304
:101028007B61BB69FF2B02D87B6A9B0002E07B6A6D
:10103800083B9B003B617B691A680F213B6901FAF9
:1010480003F3DB431A40396A3B6901FA03F31A4395
:101058007B691A603B685B6803F08053002B00F0E3
:10106800A2805F4B9B695E4A43F0010393615C4B2E
:101078009B6903F00103BB60BB685A4A7B6A9B0803
:10108800023352F82330FB607B6A03F003039B00B2
:101098000F2202FA03F3DB43FA681340FB607B6814
:1010A800514A93421FD07B68504A934219D07B68BB
:1010B8004F4A934213D07B684E4A93420DD07B68C7
:1010C8004D4A934207D07B684C4A934201D105238D
:1010D8000AE0062308E0042306E0032304E00223D1
:1010E80002E0012300E000237A6A02F00302920082
:1010F8009340FA681343FB603A497B6A9B080233C2
:10110800FA6841F823203B685B6803F48033002BBE
:1011180006D03B4B1A683A49BB6913430B6006E09B
:10112800374B1A68BB69DB43354913400B603B6892
:101138005B6803F40033002B06D0314B5A68304902
:10114800BB6913434B6006E02D4B5A68BB69DB4310
:101158002B4913404B603B685B6803F48013002BFA
:1011680006D0274B9A682649BB6913438B6006E073
:10117800234B9A68BB69DB43214913408B603B686A
:101188005B6803F40013002B06D01D4BDA681C497A
:10119800BB691343CB6006E0194BDA68BB69DB43D4
:1011A80017491340CB607B6A01337B623B681A683E
:1011B8007B6A22FA03F3002B7FF4C4AE00BF2C37FE
:1011C800BD4680BC704700BF000021100000111010
:1011D8000000121000003110000032100000221030
:1011E800001002400000014000080140000C0140CE
:1011F800001001400014014000180140001C01408B
:101208000004014080B483B000AF78600B467B8057
:1012180013467B707B78002B03D07A887B681A6131
:1012280003E07B881A047B681A6100BF0C37BD464F
:1012380080BC704780B483B000AF78600B467B8079
:101248007B68DA687B881340002B03D07A887B6838
:101258005A6102E07A887B681A6100BF0C37BD4684
:1012680080BC704780B582B000AF0346FB80084B56
:101278005A69FB881340002B06D0054AFB88536146
:10128800FB88184607F076F800BF0837BD4680BDD2
:101298000004014080B586B000AF78607B68002B01
:1012A80001D101236CE27B681B6803F00103002B6A
:1012B80000F08780924B5B6803F00C03042B0CD082
:1012C8008F4B5B6803F00C03082B12D18C4B5B68C7
:1012D80003F48033B3F5803F0BD1894B1B6803F4CB
:1012E8000033002B6CD07B685B68002B68D101232E
:1012F80046E27B685B68B3F5803F06D1804B1B688C
:101308007F4A43F4803313602EE07B685B68002BD0
:101318000CD17B4B1B687A4A23F480331360784BDB
:101328001B68774A23F4802313601DE07B685B68A1
:10133800B3F5A02F0CD1724B1B68714A43F480237C
:1013480013606F4B1B686E4A43F4803313600BE0E5
:101358006B4B1B686A4A23F480331360684B1B6825
:10136800674A23F4802313607B685B68002B13D0E3
:10137800FFF79CFB386108E0FFF798FB02463B69E2
:10138800D31A642B01D90323FAE15D4B1B6803F4DC
:101398000033002BF0D014E0FFF788FB386108E039
:1013A800FFF784FB02463B69D31A642B01D9032358
:1013B800E6E1534B1B6803F40033002BF0D100E047
:1013C80000BF7B681B6803F00203002B63D04C4B03
:1013D8005B6803F00C03002B0BD0494B5B6803F0F0
:1013E8000C03082B1CD1464B5B6803F48033002B9D
:1013F80016D1434B1B6803F00203002B05D07B6812
:101408001B69012B01D00123BAE13D4B1B6823F076
:10141800F8027B685B69DB00394913430B603AE0EB
:101428007B681B69002B20D0364B01221A60FFF71E
:101438003DFB386108E0FFF739FB02463B69D31AE8
:10144800022B01D903239BE12D4B1B6803F00203F8
:10145800002BF0D02A4B1B6823F0F8027B685B69ED
:10146800DB00274913430B6015E0264B00221A6066
:10147800FFF71CFB386108E0FFF718FB02463B69E1
:10148800D31A022B01D903237AE11D4B1B6803F001
:101498000203002BF0D17B681B6803F00803002BC4
:1014A8003AD07B689B69002B19D0174B01221A6030
:1014B800FFF7FCFA386108E0FFF7F8FA02463B69E3
:1014C800D31A022B01D903235AE10D4B5B6A03F0AF
:1014D8000203002BF0D0012000F0A8FA1CE00A4B10
:1014E80000221A60FFF7E2FA38610FE0FFF7DEFA30
:1014F80002463B69D31A022B08D9032340E100BFF7
:101508000010024000004242800442429E4B5B6A47
:1015180003F00203002BE9D17B681B6803F0040386
:10152800002B00F0A6800023FB75974BDB6903F0C6
:101538008053002B0DD1944BDB69934A43F08053C1
:10154800D361914BDB6903F08053BB60BB68012317
:10155800FB758E4B1B6803F48073002B18D18B4BE3
:101568001B688A4A43F480731360FFF79FFA386157
:1015780008E0FFF79BFA02463B69D31A642B01D9AE
:101588000323FDE0814B1B6803F48073002BF0D02C
:101598007B68DB68012B06D17B4B1B6A7A4A43F0D8
:1015A800010313622DE07B68DB68002B0CD1764BBE
:1015B8001B6A754A23F001031362734B1B6A724A54
:1015C80023F0040313621CE07B68DB68052B0CD155
:1015D8006D4B1B6A6C4A43F0040313626A4B1B6A27
:1015E800694A43F0010313620BE0674B1B6A664AC2
:1015F80023F001031362644B1B6A634A23F004035C
:1016080013627B68DB68002B15D0FFF74FFA38614F
:101618000AE0FFF74BFA02463B69D31A41F28832D7
:10162800934201D90323ABE0574B1B6A03F0020333
:10163800002BEED014E0FFF739FA38610AE0FFF723
:1016480035FA02463B69D31A41F28832934201D9EE
:10165800032395E04C4B1B6A03F00203002BEED1E9
:10166800FB7D012B05D1484BDB69474A23F08053AA
:10167800D3617B68DB69002B00F08180424B5B689B
:1016880003F00C03082B61D07B68DB69022B46D181
:101698003F4B00221A60FFF709FA386108E0FFF7AC
:1016A80005FA02463B69D31A022B01D9032367E0E6
:1016B800354B1B6803F00073002BF0D17B681B6A65
:1016C800B3F5803F08D1304B5B6823F400327B6868
:1016D8009B682D4913434B602B4B5B6823F47412B2
:1016E8007B68196A7B685B6A0B43274913434B6025
:1016F800274B01221A60FFF7D9F9386108E0FFF794
:10170800D5F902463B69D31A022B01D9032337E0E6
:101718001D4B1B6803F00073002BF0D02FE01C4B0F
:1017280000221A60FFF7C2F9386108E0FFF7BEF936
:1017380002463B69D31A022B01D9032320E0124B3E
:101748001B6803F00073002BF0D118E07B68DB699D
:10175800012B01D1012313E00B4B5B68FB60FB6895
:1017680003F480327B681B6A9A4206D1FB6803F453
:1017780070127B685B6A9A4201D0012300E0002363
:1017880018461837BD4680BD001002400070004062
:101798006000424280B584B000AF786039607B68F1
:1017A800002B01D10123D0E06A4B1B6803F007032B
:1017B8003A689A4210D9674B1B6823F007026549BB
:1017C8003B6813430B60634B1B6803F007033A68DD
:1017D8009A4201D00123B8E07B681B6803F002033A
:1017E800002B20D07B681B6803F00403002B05D076
:1017F800594B5B68584A43F4E06353607B681B6845
:1018080003F00803002B05D0534B5B68524A43F49E
:1018180060535360504B5B6823F0F0027B689B6811
:101828004D4913434B607B681B6803F00103002B91
:1018380040D07B685B68012B07D1474B1B6803F4DA
:101848000033002B15D101237FE07B685B68022BF6
:1018580007D1414B1B6803F00073002B09D101230A
:1018680073E03D4B1B6803F00203002B01D10123F9
:101878006BE0394B5B6823F003027B685B68364991
:1018880013434B60FFF712F9F8600AE0FFF70EF90F
:101898000246FB68D31A41F28832934201D90323E6
:1018A80053E02D4B5B6803F00C027B685B689B0080
:1018B8009A42EBD1274B1B6803F007033A689A4218
:1018C80010D2244B1B6823F0070222493B681343BC
:1018D8000B60204B1B6803F007033A689A4201D05B
:1018E800012332E07B681B6803F00403002B08D057
:1018F800194B5B6823F4E0627B68DB681649134385
:101908004B607B681B6803F00803002B09D0124B5F
:101918005B6823F460527B681B69DB000E49134344
:101928004B6000F021F801460B4B5B681B0903F084
:101938000F030A4AD35C21FA03F3094A1360094BDF
:101948001B681846FFF770F8002318461037BD4685
:1019580080BD00BF0020024000100240640503085B
:10196800100000200000002090B48AB000AF2A4B7D
:101978003C1D0FCB84E80F00284B1B883B800023BD
:10198800FB610023BB6100237B6200237B61002392
:101998003B62234B5B68FB61FB6903F00C03042B80
:1019A80002D0082B03D02DE01E4B3B622DE0FB69D3
:1019B8009B0C03F00F0307F12802134413F8243C8F
:1019C8007B61FB6903F48033002B13D0144B5B68F5
:1019D8005B0C03F0010307F12802134413F8283CB9
:1019E800BB617B690F4A02FB03F2BB69B2FBF3F3ED
:1019F8007B6204E07B690C4A02FB03F37B627B6A2F
:101A08003B6202E0074B3B6200BF3B6A184628373F
:101A1800BD4690BC704700BF5C9500086C950008F7
:101A28000010024000127A0000093D0080B485B021
:101A380000AF78600A4B1B680A4AA2FB03235B0AC3
:101A48007A6802FB03F3FB6000BFFB685A1EFA606A
:101A5800002BF9D100BF1437BD4680BC704700BFCA
:101A680010000020D34D621080B588B000AF7860B8
:101A78007B681B681B68FB617B681B68DB68BB6154
:101A88007B681B685B697B6100233B610023FB600B
:101A9800FB6903F00F033B613B69002B0DD1FB6928
:101AA80003F02003002B08D0BB6903F02003002BB0
:101AB80003D0786800F084F9CCE03B69002B00F093
:101AC800AB807B6903F00103002B05D1BB6903F4EC
:101AD8009073002B00F0A080FB6903F00103002B3A
:101AE8000AD0BB6903F48073002B05D07B68DB6BDD
:101AF80043F001027B68DA63FB6903F00403002BFF
:101B08000AD07B6903F00103002B05D07B68DB6BEF
:101B180043F002027B68DA63FB6903F00203002BDF
:101B28000AD07B6903F00103002B05D07B68DB6BCF
:101B380043F004027B68DA63FB6903F00803002BB7
:101B48000AD07B6903F00103002B05D07B68DB6BAF
:101B580043F008027B68DA637B68DB6B002B78D084
:101B6800FB6903F02003002B07D0BB6903F02003B7
:101B7800002B02D0786800F023F97B681B685B694A
:101B880003F04003002B14BF01230023DBB2FB60EA
:101B98007B68DB6B03F00803002B02D1FB68002B8A
:101BA80031D0786800F06EF87B681B685B6903F0D9
:101BB8004003002B23D07B681B685A697B681B682D
:101BC80022F040025A617B685B6B002B13D07B6864
:101BD8005B6B224A5A637B685B6B1846FFF7A0F879
:101BE8000346002B16D07B685B6B5B6B7A68526B85
:101BF800104698470EE0786800F03BF80AE07868ED
:101C080000F037F806E0786800F033F87B680022C7
:101C1800DA631EE000BF1CE0FB6903F08003002BC1
:101C280008D0BB6903F08003002B03D0786800F06C
:101C38005AF80FE0FB6903F04003002B0AD0BB6998
:101C480003F04003002B05D0786800F0A1F800BF2E
:101C580000E000BF2037BD4680BD00BFC71C00089C
:101C680080B483B000AF786000BF0C37BD4680BC3D
:101C7800704780B483B000AF786000BF0C37BD46B2
:101C880080BC704780B483B000AF78607B681B6805
:101C9800DA687B681B6822F49072DA607B681B68DC
:101CA8005A697B681B6822F001025A617B6820220E
:101CB80083F83A2000BF0C37BD4680BC704780B51A
:101CC80084B000AF78607B685B6AFB60FB680022C9
:101CD800DA85FB680022DA84F868FFF7CAFF00BFDC
:101CE8001037BD4680BD80B485B000AF78607B6892
:101CF80093F83930DBB2212B44D17B689B68B3F56C
:101D0800805F1AD17B681B6AFB60FB681B881A46D8
:101D18007B681B68C2F308025A607B681B69002B4A
:101D280005D17B681B6A9A1C7B681A620EE07B6887
:101D38001B6A5A1C7B681A6208E07B681B6A591C7C
:101D48007A6811621A787B681B685A607B68DB8C3A
:101D58009BB2013B9BB27A681946D184002B0FD104
:101D68007B681B68DA687B681B6822F08002DA608F
:101D78007B681B68DA687B681B6842F04002DA609F
:101D8800002300E0022318461437BD4680BC704784
:101D980080B582B000AF78607B681B68DA687B68C2
:101DA8001B6822F04002DA607B68202283F8392021
:101DB8007868FFF755FF002318460837BD4680BDF1
:101DC80080B584B000AF78607B6893F83A30DBB2B6
:101DD800222B71D17B689B68B3F5805F23D17B6828
:101DE8009B6AFB607B681B69002B0ED17B681B68B4
:101DF8005B689BB2C3F308039AB2FB681A807B68DE
:101E08009B6A9A1C7B689A6229E07B681B685B68FE
:101E18009BB2DBB29AB2FB681A807B689B6A5A1C39
:101E28007B689A621BE07B681B69002B0AD17B6880
:101E38001B6858687B689B6A591C7A689162C2B2B1
:101E48001A700CE07B681B685B68DAB27B689B6A77
:101E5800581C7968886202F07F02D2B21A707B68D7
:101E6800DB8D9BB2013B9BB27A681946D185002B6A
:101E780020D17B681B68DA687B681B6822F0200227
:101E8800DA607B681B68DA687B681B6822F48072FA
:101E9800DA607B681B685A697B681B6822F001025C
:101EA8005A617B68202283F83A20786806F0E0FAC5
:101EB800002302E0002300E0022318461037BD4645
:101EC80080BD000080B588B000AF07F11003002284
:101ED8001A605A609A60DA60464B9B69454A43F03B
:101EE80020039361434B9B6903F02003FB60FB686D
:101EF800404B9B693F4A43F0040393613D4B9B6908
:101F080003F00403BB60BB683A4B9B69394A43F052
:101F180010039361374B9B6903F010037B607B6868
:101F280000224FF480713448FFF76CF90022042135
:101F38003248FFF767F901233B61314B7B6102238C
:101F4800BB6107F1100319462B48FEF7F1FF202368
:101F58003B612C4B7B610123BB6107F110031946E0
:101F68002948FEF7E5FF4FF480733B6101237B614D
:101F78000023BB610223FB6107F1100319461E48C9
:101F8800FEF7D6FF4FF400433B611E4B7B610123F4
:101F9800BB6107F1100319461748FEF7C9FF042370
:101FA8003B6101237B610023BB610223FB6107F1D5
:101FB800100319461148FEF7BBFF00220121062035
:101FC800FEF777FE0620FEF790FE0122012117207A
:101FD800FEF76FFE1720FEF788FE02220121282057
:101FE800FEF767FE2820FEF780FE00BF2037BD46BB
:101FF80080BD00BF001002400008014000140140ED
:1020080000001110000021100010014080B483B0BE
:1020180000AF0346FB800D4B4FF480725A610B4BA7
:102028004FF400725A610A4AFB88D360074B80223A
:102038005A61064B80221A61044B4FF400721A61F0
:1020480000BF0C37BD4680BC704700BF0010014080
:10205800000C014080B483B000AF0346FB800D4BF9
:102068004FF480721A610B4B4FF400725A610A4A9E
:10207800FB88D360074B80225A61064B80221A6185
:10208800044B4FF400721A6100BF0C37BD4680BC88
:10209800704700BF00100140000C014080B582B0BD
:1020A80000AF1D4B4FF088321A601B4B4FF088323F
:1020B8005A60194B0022DA60184B4FF480721A618B
:1020C800164B4FF400725A61144B40225A61144B5C
:1020D8009B8848F68912934202D10120FEF7F0FC52
:1020E8000D4B9B68FB800D4B40221A610B4B4FF444
:1020F80000721A61084B4FF033321A60064B4FF0EA
:1021080033325A60044B4FF6FF72DA60FB88184688
:102118000837BD4680BD00BF000C014000100140DB
:10212800A800002080B582B000AF03460A46FB80B5
:102138001346BB80FB881846FFF768FF0C4B4FF42B
:1021480080721A610A4B4FF400725A61094ABB88BF
:10215800D360074B80225A61054B80221A61044BD9
:102168004FF400721A6100BF0837BD4680BD00BF3A
:1021780000100140000C014080B582B000AF03465A
:10218800FB80FB881846FFF741FFFFF787FF0346F0
:1021980018460837BD4680BD80B500AF034B1B8984
:1021A8001846FFF733FF00BF80BD00BFA80000201E
:1021B80080B582B000AF03460A46FB801346BB8059
:1021C800734B9B8849F24132934205D0704B9B88F0
:1021D80045F21032934264D16D4B5B891846FFF784
:1021E80015FF6C4B4FF480721A616A4B4FF4007202
:1021F8005A61FB881B0A9AB2674BDA60654B8022EA
:102208005A61644B80221A61624B4FF400721A6162
:10221800604B4FF480721A615E4B4FF400725A6142
:10222800FB885D4ADBB2D3605A4B80225A61594B16
:1022380080221A61574B4FF400721A61544B9B89E4
:102248001846FFF7E3FE534B4FF480721A61514B67
:102258004FF400725A61BB881B0A9AB24E4BDA607F
:102268004C4B80225A614B4B80221A61494B4FF4E8
:1022780000721A61474B4FF480721A61454B4FF454
:1022880000725A61BB88444ADBB2D360414B80225A
:102298005A61404B80221A613E4B4FF400721A611A
:1022A80048E23B4B9B8846F60402934276D1384B72
:1022B8009B79012B06D1364B1A88FB88D31A9BB21F
:1022C800013BFB80324B5B891846FFF79FFE314B81
:1022D8004FF480721A612F4B4FF400725A61FB88D9
:1022E8001B0A9AB22C4BDA602A4B80225A61294B7E
:1022F80080221A61274B4FF400721A61254B4FF464
:1023080080721A61234B4FF400725A61FB88224A8B
:10231800DBB2D3601F4B80225A611E4B80221A61A8
:102328001C4B4FF400721A61194B9B891846FFF732
:102338006DFE184B4FF480721A61164B4FF4007201
:102348005A61BB881B0A9AB2134BDA60114B802280
:102358005A61104B80221A610E4B4FF400721A61B9
:102368000C4B4FF480721A610A4B4FF400725A6199
:10237800BB88094ADBB2D360064B80225A61054B01
:1023880080221A61034B4FF400721A61D2E100BF38
:10239800A800002000100140000C0140994B9B88C8
:1023A80041F66312934240F03381964B9B79002BA0
:1023B80063D1944B1A88FB88D31A9BB2013BFB80EC
:1023C800904B5B891846FFF721FE8F4B4FF48072C4
:1023D8001A618D4B4FF400725A618C4B0022DA60FF
:1023E800894B80225A61884B80221A61864B4FF4B0
:1023F80000721A61844B4FF480721A61824B4FF459
:1024080000725A61814B0022DA607F4B80225A6148
:102418007D4B80221A617C4B4FF400721A617A4B13
:102428004FF480721A61784B4FF400725A61FB883E
:102438001B0A9AB2754BDA60734B80225A61724B51
:1024480080221A61704B4FF400721A616E4B4FF480
:1024580080721A616C4B4FF400725A61FB886B4AA8
:10246800DBB2D360684B80225A61674B80221A61C5
:10247800654B4FF400721A6161E0624B5B89184644
:10248800FFF7C4FD604B4FF480721A615E4B4FF446
:1024980000725A61FB881B0A9AB25C4BDA605A4B8D
:1024A80080225A61584B80221A61574B4FF40072B0
:1024B8001A61554B4FF480721A61534B4FF40072F6
:1024C8005A61FB88514ADBB2D3604F4B80225A6174
:1024D8004D4B80221A614C4B4FF400721A614A4BE3
:1024E8004FF480721A61484B4FF400725A61454BA1
:1024F8001B88013B1A12454BDA60434B80225A6114
:10250800414B80221A61404B4FF400721A613E4BD6
:102518004FF480721A613C4B4FF400725A61394B88
:102528001B88013B394ADBB2D360374B80225A61A2
:10253800354B80221A61344B4FF400721A61314BCB
:102548009B891846FFF762FD2F4B4FF480721A6182
:102558002D4B4FF400725A61BB881B0A9AB22B4B61
:10256800DA60294B80225A61274B80221A61264B58
:102578004FF400721A61244B4FF480721A61224B97
:102588004FF400725A61BB88204ADBB2D3601E4BFD
:1025980080225A611C4B80221A611B4B4FF4007237
:1025A8001A61194B4FF480721A61174B4FF400727D
:1025B8005A61144B5B88013B1A12144BDA60124BB8
:1025C80080225A61104B80221A610F4B4FF400721F
:1025D8001A610D4B4FF480721A610B4B4FF4007265
:1025E8005A61084B5B88013B084ADBB2D360064B53
:1025F80080225A61044B80221A61034B4FF4007207
:102608001A6197E0A800002000100140000C01406A
:102618004A4B9B8845F21052934272D1474B5B89D3
:102628001846FFF7F3FC464B4FF480721A61444B8F
:102638004FF400725A61FB881B0A9AB2414BDA6068
:102648003F4B80225A613E4B80221A613C4B4FF42B
:1026580000721A61394B5B8901339BB21846FFF748
:10266800D5FC374B4FF480721A61354B4FF400722A
:102678005A61FB88334ADBB2D360314B80225A61FE
:102688002F4B80221A612E4B4FF400721A612B4B8C
:102698009B891846FFF7BAFC294B4FF480721A61E0
:1026A800274B4FF400725A61BB881B0A9AB2254B1C
:1026B800DA60234B80225A61214B80221A61204B19
:1026C8004FF400721A611D4B9B8901339BB2184667
:1026D800FFF79CFC1A4B4FF480721A61184B4FF4A9
:1026E80000725A61BB88174ADBB2D360144B802250
:1026F8005A61134B80221A61114B4FF400721A6110
:1027080018E00E4B9B79012B06D10C4B1A88FB88DD
:10271800D31A9BB2013BFB80084B5B89FA881146B0
:102728001846FFF7FFFC054B9B89BA8811461846E7
:10273800FFF7F8FC00BF0837BD4680BDA8000020A1
:1027480000100140000C014080B584B000AF034682
:10275800FB710023FB810023BB81784B9B79012B04
:102768000BD1764B9B8846F60402934205D0734BF7
:102778009B8841F66312934209D1704B9B79002BD9
:1027880034D16E4B9B8841F6631293422ED1FB796C
:10279800072B2BD801A252F823F000BFC527000849
:1027A800CB270008D1270008D7270008DD27000815
:1027B800E3270008E9270008EF2700080623FB7134
:1027C80014E00723FB7111E00423FB710EE00523DD
:1027D800FB710BE00123FB7108E00023FB7105E0AE
:1027E8000323FB7102E00223FB7100BF534B9B885C
:1027F80049F24132934218D0504B9B8846F6040266
:10280800934212D04D4B9B8845F2103293420CD024
:102818004A4B9B8845F21052934206D0474B9B88FF
:1028280041F66312934240F05082FB79072B36D869
:1028380001A252F823F000BFA72800086128000869
:102848006B280008752800087F28000889280008D8
:10285800932800089D280008FB8943F08003FB812A
:102868001DE0FB8943F04003FB8118E0FB8943F03E
:10287800C003FB8113E0FB8943F02003FB810EE0DA
:10288800FB8943F06003FB8109E0FB8943F0A00367
:10289800FB8104E0FB8943F0E003FB8100BF274B89
:1028A8009B8845F21052934203D14FF45853BB8191
:1028B80001E03623BB81214B9B8845F210329342BD
:1028C8000FD01E4B9B8845F21052934209D01B4BE8
:1028D8009B8841F66312934203D0FB8943F00803B7
:1028E800FB81164B9B8846F60402934203D1FB8971
:1028F80043F00203FB81FA89BB8911461846FFF7AA
:1029080011FC0E4B9B8841F66312934228D0FB8939
:1029180003F02003002B13D0084B1A88074B5B8861
:102928009A421DD2054B1B887B81044B5A88034B66
:102938001A80024A7B89538012E000BFA800002059
:102948007F4B1A887E4B5B889A4209D97C4B1B883F
:102958007B817B4B5A887A4B1A80794A7B895380D2
:10296800774B9B8845F21052934240F0EF80744BAE
:102978005B891846FFF74AFB724B4FF480721A6165
:10298800704B4FF400725A616F4B0022DA606D4B46
:1029980080225A616B4B80221A616A4B4FF4007295
:1029A8001A61674B5B8901339BB21846FFF72EFB10
:1029B800644B4FF480721A61624B4FF400725A6193
:1029C800614B0022DA605F4B80225A615D4B8022A6
:1029D8001A615C4B4FF400721A61594B5B890233E0
:1029E8009BB21846FFF712FB564B4FF480721A61E0
:1029F800544B4FF400725A61514B1B88013B1A1219
:102A0800514BDA604F4B80225A614E4B80221A613B
:102A18004C4B4FF400721A61494B5B8903339BB2EC
:102A28001846FFF7F3FA474B4FF480721A61454B8B
:102A38004FF400725A61424B1B88013B424ADBB299
:102A4800D360404B80225A613E4B80221A613D4B35
:102A58004FF400721A613A4B9B891846FFF7D6FA71
:102A6800384B4FF480721A61364B4FF400725A613A
:102A7800354B0022DA60334B80225A61314B802279
:102A88001A61304B4FF400721A612D4B9B89013348
:102A98009BB21846FFF7BAFA2A4B4FF480721A61B4
:102AA800284B4FF400725A61274B0022DA60254BFD
:102AB80080225A61234B80221A61224B4FF4007204
:102AC8001A611F4B9B8902339BB21846FFF79EFA87
:102AD8001C4B4FF480721A611A4B4FF400725A6102
:102AE800174B5B88013B1A12174BDA60154B802293
:102AF8005A61144B80221A61124B4FF400721A610A
:102B08000F4B9B8903339BB21846FFF77FFA0D4B97
:102B18004FF480721A610B4B4FF400725A61084BE4
:102B28005B88013B084ADBB2D360064B80225A61BE
:102B3800044B80221A61034B4FF400721A610AE1B8
:102B4800A800002000100140000C0140844B5B8964
:102B58001846FFF75BFA834B4FF480721A61814B7A
:102B68004FF400725A61804B0022DA607D4B80225C
:102B78005A617C4B80221A617A4B4FF400721A61B9
:102B8800784B4FF480721A61764B4FF400725A6199
:102B9800754B0022DA60734B80225A61714B802298
:102BA8001A61704B4FF400721A616E4B4FF48072C9
:102BB8001A616C4B4FF400725A61694B1B88013BD8
:102BC8001A12694BDA60674B80225A61654B802282
:102BD8001A61644B4FF400721A61624B4FF48072B1
:102BE8001A61604B4FF400725A615D4B1B88013BC0
:102BF8005D4ADBB2D3605B4B80225A61594B80221D
:102C08001A61584B4FF400721A61554B9B8918464C
:102C1800FFF7FCF9534B4FF480721A61514B4FF494
:102C280000725A61504B0022DA604E4B80225A6182
:102C38004C4B80221A614B4B4FF400721A61494B7E
:102C48004FF480721A61474B4FF400725A61464B39
:102C58000022DA60434B80225A61424B80221A617B
:102C6800404B4FF400721A613E4B4FF480721A6168
:102C78003C4B4FF400725A61394B5B88013B1A1286
:102C8800394BDA60374B80225A61364B80221A6101
:102C9800344B4FF400721A61324B4FF480721A6150
:102CA800304B4FF400725A612D4B5B88013B2E4A22
:102CB800DBB2D3602B4B80225A612A4B80221A61E7
:102CC800284B4FF400721A6145E0FB79072B36D880
:102CD80001A252F823F000BF012D00080B2D0008B7
:102CE800152D0008472D00081F2D0008292D000864
:102CF800332D00083D2D0008FB8943F03003FB818C
:102D08001DE0FB8943F01003FB8118E0FB8943F0C9
:102D18002003FB8113E0FB8943F03803FB810EE0BD
:102D2800FB8943F02803FB8109E0FB8943F0180382
:102D3800FB8104E0FB8943F00803FB8100BF032308
:102D4800BB81FB8943F48053FB81FA89BB89114617
:102D58001846FFF7E7F900BF1037BD4680BD00BF32
:102D6800A800002000100140000C014080B582B08E
:102D780000AF03460A46FB801346BB80BA88FB882F
:102D880011461846FFF714FAFFF706FA0C4B4FF4F2
:102D980080721A610A4B4FF400725A61094B1A8803
:102DA800094BDA60064B80225A61054B80221A6172
:102DB800034B4FF400721A6100BF0837BD4680BD4F
:102DC8000010014094000020000C014080B582B042
:102DD80000AF0346FB800B46BB8013467B80754BD8
:102DE8009B8849F24132934205D0724B9B8845F249
:102DF8001032934264D16F4B5B891846FFF706F98E
:102E08006D4B4FF480721A616B4B4FF400725A612C
:102E1800FB881B0A9AB2694BDA60674B80225A61B9
:102E2800654B80221A61644B4FF400721A61624B41
:102E38004FF480721A61604B4FF400725A61FB883C
:102E48005E4ADBB2D3605C4B80225A615A4B8022C7
:102E58001A61594B4FF400721A61564B9B891846F8
:102E6800FFF7D4F8544B4FF480721A61524B4FF469
:102E780000725A61BB881B0A9AB2504BDA604E4BFB
:102E880080225A614C4B80221A614B4B4FF40072DE
:102E98001A61494B4FF480721A61474B4FF4007224
:102EA8005A61BB88454ADBB2D360434B80225A61E2
:102EB800414B80221A61404B4FF400721A61E6E1DF
:102EC8003C4B9B8845F21052934279D1394B5B8930
:102ED8001846FFF79BF8384B4FF480721A61364B4F
:102EE8004FF400725A61FB881B0A9AB2334BDA60BE
:102EF800314B80225A61304B80221A612E4B4FF49D
:102F080000721A612B4B5B8901339BB21846FFF79D
:102F18007DF8294B4FF480721A61274B4FF40072E9
:102F28005A61FB88254ADBB2D360234B80225A6161
:102F3800214B80221A61204B4FF400721A611D4BFD
:102F48009B891846FFF762F81B4B4FF480721A6191
:102F5800194B4FF400725A61BB881B0A9AB2174B7F
:102F6800DA60154B80225A61134B80221A61124B8A
:102F78004FF400721A610F4B9B8901339BB21846BC
:102F8800FFF744F80C4B4FF480721A610A4B4FF468
:102F980000725A61BB88094ADBB2D360064B8022B3
:102FA8005A61054B80221A61034B4FF400721A6173
:102FB8006DE100BFA800002000100140000C014096
:102FC800684B9B8841F66312934240F0D180654B71
:102FD8009B79002B06D1634B1A88FB88D31A9BB2C6
:102FE800013BFB805F4B5B891846FFF70FF85E4B90
:102FF8004FF480721A615C4B4FF400725A61FB887F
:103008001B0A9AB2594BDA60574B80225A61564BC9
:1030180080221A61544B4FF400721A61524B4FF4DC
:1030280080721A61504B4FF400725A61FB884F4A04
:10303800DBB2D3604C4B80225A614B4B80221A6121
:10304800494B4FF400721A61474B4FF480721A6172
:10305800454B4FF400725A61FB881B0A9AB2434BE6
:10306800DA60414B80225A613F4B80221A613E4B05
:103078004FF400721A613C4B4FF480721A613A4B5C
:103088004FF400725A61FB88384ADBB2D360364B82
:1030980080225A61344B80221A61334B4FF40072FC
:1030A8001A61304B9B891846FEF7B0FF2E4B4FF440
:1030B80080721A612C4B4FF400725A61BB881B0A4C
:1030C8009AB22A4BDA60284B80225A61264B80221A
:1030D8001A61254B4FF400721A61234B4FF480722A
:1030E8001A61214B4FF400725A61BB881F4ADBB248
:1030F800D3601D4B80225A611B4B80221A611A4BE8
:103108004FF400721A61184B4FF480721A61164B13
:103118004FF400725A61BB881B0A9AB2134BDA60EB
:10312800114B80225A61104B80221A610E4B4FF4CA
:1031380000721A610C4B4FF480721A610A4B4FF4FB
:1031480000725A61BB88094ADBB2D360064B802201
:103158005A61054B80221A61034B4FF400721A61C1
:1031680095E000BFA800002000100140000C0140BD
:103178005E4B9B8846F6040293426FD15B4B9B796A
:10318800012B06D1594B1A88FB88D31A9BB2013BF5
:10319800FB80564B5B891846FEF738FF544B4FF4BB
:1031A80080721A61524B4FF400725A61FB881B0AF5
:1031B8009AB2504BDA604E4B80225A614C4B8022B7
:1031C8001A614B4B4FF400721A61494B4FF48072ED
:1031D8001A61474B4FF400725A61FB88454ADBB2CB
:1031E800D360434B80225A61414B80221A61404B85
:1031F8004FF400721A613D4B9B891846FEF706FF93
:103208003B4B4FF480721A61394B4FF400725A618C
:10321800BB881B0A9AB2374BDA60354B80225A6159
:10322800334B80221A61324B4FF400721A61304BD3
:103238004FF480721A612E4B4FF400725A61BB88AA
:103248002C4ADBB2D3602A4B80225A61284B802259
:103258001A61274B4FF400721A6118E0234B9B79CF
:10326800012B06D1214B1A88FB88D31A9BB2013B4C
:10327800FB801E4B5B89FA8811461846FEF752FF01
:103288001A4B9B89BA8811461846FEF74BFF184B14
:103298004FF480725A61164B4FF400725A61134B07
:1032A8001A89144BDA60124B80225A61104B802223
:1032B8001A610F4B4FF400721A610D4B4FF4807274
:1032C8001A610B4B4FF400725A610A4A7B88D3602B
:1032D800074B80225A61064B80221A61044B4FF437
:1032E80000721A6100BF0837BD4680BDA8000020E3
:1032F80000100140000C014090B583B000AF0346B8
:10330800FB71BE20FEF782FE4B4B4FF480721A61B0
:10331800494B4FF400725A61484B0522DA60464B1C
:1033280080225A61444B80221A61434B4FF4007249
:103338001A61414B4FF480721A613F4B4FF400728F
:103348005A61FB791846FDF7BDF839A3D3E9002384
:10335800FDF722F903460C461A462346374C104619
:103368001946FDF72BFB0346E360334B80225A6175
:10337800314B80221A61304B4FF400721A612E4B88
:103388004FF480721A612C4B4FF400725A612B4B28
:103398000122DA60284B80225A61274B80221A6169
:1033A800254B4FF400721A61234B4FF480721A6157
:1033B800214B4FF400725A61204BFF22DA601E4BFA
:1033C80080225A611C4B80221A611B4B4FF40072F9
:1033D8001A61194B4FF480721A61174B4FF400723F
:1033E8005A61164B0022DA60134B80225A61124B45
:1033F80080221A61104B4FF400721A610E4B4FF481
:1034080080721A610C4B4FF400725A610B4B002208
:10341800DA60094B80225A61074B80221A61064BF9
:103428004FF400721A6100BF0C37BD4690BD00BF53
:10343800666666666666044000100140000C01403E
:1034480080B582B000AF0346FB71FB79002B77D1C2
:10345800804B00229A717F4BF0221A807D4B4FF4EB
:10346800A0725A807B4B9B8849F2413293420BD021
:10347800784B9B8846F60402934205D0754B9B888F
:1034880045F2103293421ED1724B2C221A81714B95
:103498002A225A816F4B2B229A816E4B9B8846F6C3
:1034A8000402934206D06B4B9B8845F2103293423C
:1034B80040F0C780674B4FF4A0721A80654B4FF4F9
:1034C800F0725A80BDE0634B9B8845F210529342DC
:1034D80014D1604B4FF430521A815E4B4FF428528E
:1034E8005A815C4B4FF42C529A815A4B4FF4F0722C
:1034F8001A80584B4FF448725A80A3E0554B9B886A
:1035080041F66312934211D1524B2C221A81514B2E
:103518002B225A814F4B2A229A814E4B4FF4F0723C
:103528001A804C4B4FF448725A808BE0494B222248
:103538001A81484B20225A81464B21229A8181E0E8
:10354800444B01229A71434B4FF4A0721A80414BAD
:10355800F0225A803F4B9B8849F24132934205D072
:103568003C4B9B8845F21032934209D1394B2C22AF
:103578001A81384B2A225A81364B2B229A814BE0EA
:10358800344B9B8846F60402934209D1314B2C22D6
:103598001A81304B2B225A812E4B2A229A813BE0EA
:1035A8002C4B9B8845F21052934214D1294B4FF46F
:1035B80030521A81274B4FF428525A81254B4FF429
:1035C8002C529A81234B4FF448721A80214B4FF4A6
:1035D800F0725A8020E01F4B9B8841F66312934299
:1035E80011D11C4B2C221A811A4B2A225A81194BB1
:1035F8002B229A81174B4FF448721A80154B4FF4BF
:10360800F0725A8008E0134B22221A81114B2122B2
:103618005A81104B20229A810E4B9B8846F6040251
:10362800934205D00B4B9B8845F21032934209D147
:10363800084B4FF4F0721A80064B4FF4A0725A8070
:1036480000E000BF0020FFF77FF800BF0837BD4645
:1036580080BD00BFA800002090B587B000AF044629
:10366800084611461A462346FB800346BB800B4694
:103678007B8013463B80FA887B8813449BB2013BCE
:10368800FB81BA883B8813449BB2013BBB816E4BDC
:103698009B8849F24132934217D06B4B9B8845F285
:1036A8001032934211D0684B9B8846F6040293422D
:1036B8000BD0654B9B79012B40F0CC80624B9B88EB
:1036C80041F66312934240F0C5805F4B5B89184610
:1036D800FEF79CFC5D4B4FF480721A615B4B4FF414
:1036E80000725A61FB881B0A9AB2594BDA60574B31
:1036F80080225A61554B80221A61544B4FF4007254
:103708001A61524B4FF480721A61504B4FF4007299
:103718005A61FB884E4ADBB2D3604C4B80225A6117
:103728004A4B80221A61494B4FF400721A61474B89
:103738004FF480721A61454B4FF400725A61FB894D
:103748001B0A9AB2424BDA60404B80225A613F4BC7
:1037580080221A613D4B4FF400721A613B4B4FF4C3
:1037680080721A61394B4FF400725A61FB89384AEA
:10377800DBB2D360354B80225A61344B80221A6108
:10378800324B4FF400721A612F4B9B891846FEF793
:103798003DFC2E4B4FF480721A612C4B4FF4007293
:1037A8005A61BB881B0A9AB2294BDA60274B8022E0
:1037B8005A61264B80221A61244B4FF400721A6119
:1037C800224B4FF480721A61204B4FF400725A61F9
:1037D800BB881F4ADBB2D3601C4B80225A611B4B4B
:1037E80080221A61194B4FF400721A61174B4FF47B
:1037F80080721A61154B4FF400725A61BB891B0A1B
:103808009AB2134BDA60114B80225A610F4B802217
:103818001A610E4B4FF400721A610C4B4FF4807210
:103828001A610A4B4FF400725A61BB89084ADBB22D
:10383800D360064B80225A61044B80221A61034BE5
:103848004FF400721A611EE2A80000200010014027
:10385800000C01406C4B9B8841F66312934240F088
:10386800D980694B1A887B88D31A9AB2FB88D31AF5
:10387800FB80BA883B8813449BB2013B3B80624B78
:103888005B891846FEF7C2FB604B4FF480721A61E1
:103898005E4B4FF400725A61FB881B0A9AB25C4B6C
:1038A800DA605A4B80225A61584B80221A61574B72
:1038B8004FF400721A61554B4FF480721A61534BE2
:1038C8004FF400725A61FB88514ADBB2D3604F4B08
:1038D80080225A614D4B80221A614C4B4FF4007282
:1038E8001A614A4B4FF480721A61484B4FF40072C8
:1038F8005A61FA887B881344013B1A12444BDA60F8
:10390800424B80225A61414B80221A613F4B4FF44F
:1039180000721A613D4B4FF480721A613B4B4FF4B1
:1039280000725A61FA887B881344013B384ADBB23B
:10393800D360364B80225A61344B80221A61334B54
:103948004FF400721A61304B9B891846FEF75EFBF4
:103958002E4B4FF480721A612C4B4FF400725A614F
:10396800BB881B0A9AB22A4BDA60284B80225A611C
:10397800264B80221A61254B4FF400721A61234BA3
:103988004FF480721A61214B4FF400725A61BB8860
:103998001F4ADBB2D3601D4B80225A611B4B802229
:1039A8001A611A4B4FF400721A61184B4FF4807267
:1039B8001A61164B4FF400725A613B881B0A9AB27F
:1039C800134BDA60114B80225A61104B80221A6126
:1039D8000E4B4FF400721A610C4B4FF480721A614F
:1039E8000A4B4FF400725A613B88094ADBB2D36034
:1039F800064B80225A61054B80221A61034B4FF413
:103A080000721A613FE100BFA800002000100140C9
:103A1800000C01409E4B9B8845F21052934240F0A7
:103A2800E9809B4B5B891846FEF7F0FA994B4FF4F7
:103A380080721A61974B4FF400725A61FB881B0A17
:103A48009AB2954BDA60934B80225A61914B80224F
:103A58001A61904B4FF400721A618D4B5B890133E8
:103A68009BB21846FEF7D2FA8A4B4FF480721A615D
:103A7800884B4FF400725A61FB88874ADBB2D360E7
:103A8800844B80225A61834B80221A61814B4FF408
:103A980000721A617E4B5B8902339BB21846FEF7AF
:103AA800B5FA7C4B4FF480721A617A4B4FF400726E
:103AB8005A61FB891B0A9AB2774BDA60754B8022F0
:103AC8005A61744B80221A61724B4FF400721A616A
:103AD8006F4B5B8903339BB21846FEF797FA6D4B21
:103AE8004FF480721A616B4B4FF400725A61FB8974
:103AF800694ADBB2D360674B80225A61654B8022EA
:103B08001A61644B4FF400721A61614B9B89184625
:103B1800FEF77CFA5F4B4FF480721A615D4B4FF4ED
:103B280000725A61BB881B0A9AB25B4BDA60594B28
:103B380080225A61574B80221A61564B4FF400720B
:103B48001A61534B9B8901339BB21846FEF75EFA04
:103B5800504B4FF480721A614E4B4FF400725A6109
:103B6800BB884D4ADBB2D3604A4B80225A61494B2D
:103B780080221A61474B4FF400721A61444B9B89AB
:103B880002339BB21846FEF741FA424B4FF480725B
:103B98001A61404B4FF400725A61BB891B0A9AB2F2
:103BA8003D4BDA603B4B80225A613A4B80221A61C6
:103BB800384B4FF400721A61354B9B8903339BB223
:103BC8001846FEF723FA334B4FF480721A61314BD3
:103BD8004FF400725A61BB892F4ADBB2D3602D4B78
:103BE80080225A612B4B80221A612A4B4FF40072B3
:103BF8001A6148E0264B9B79012B12D1BB88FB82C6
:103C0800BB89BB82224B1A88FB89D31A9BB2013B22
:103C18007B821F4B1A88FB88D31A9BB2013B3B82DD
:103C280007E0FB88FB82FB89BB82BB887B82BB8960
:103C38003B825023FB725123BB7252237B72532366
:103C48003B72FB7A9BB2FA8A11461846FEF76AFA6B
:103C5800BB7A9BB2BA8A11461846FEF763FA7B7A9A
:103C68009BB27A8A11461846FEF75CFA3B7A9BB2F9
:103C78003A8A11461846FEF755FABA88FB88114663
:103C88001846FEF795FA00BF1C37BD4690BD00BF29
:103C9800A800002000100140000C014080B586B04B
:103CA80000AF904B9B698F4A43F0080393618D4B9B
:103CB8009B6903F008037B607B688A4B9B69894A90
:103CC80043F010039361874B9B6903F010033B603B
:103CD8003B684FF4F863BB600123FB6001233B6141
:103CE80003237B6107F1080319467F48FDF720F994
:103CF8004FF6FF73BB6007F1080319467B48FDF7D1
:103D080017F93220FCF7DCFE01210020FEF70AFA41
:103D18003220FCF7D5FE0020FEF72EFA03461A469D
:103D2800734B9A80724B9B88FE2B0BD9704B9B88E8
:103D38004FF6FF72934205D06D4B9B88B3F5134F36
:103D480040F0C880D320FEF761F9FEF7A7F9FEF727
:103D5800A5F9FEF7A3F903461A46654B9A80644B0A
:103D68009B881B029AB2624B9A80FEF797F903462A
:103D78001A465F4B9B8813439AB25D4B9A805C4B03
:103D88009B8849F24132934200F0A480BF20FEF79D
:103D98003DF9FEF783F9FEF781F9FEF77FF9FEF7A3
:103DA8007DF903461A46524B9A80514B9B881B0259
:103DB8009AB24F4B9A80FEF771F903461A464C4B5C
:103DC8009B8813439AB24A4B9A80494B9B8846F684
:103DD800040293427ED0D420FEF718F9FEF75EF96C
:103DE800FEF75CF9FEF75AF903461A46404B9A80EB
:103DF8003F4B9B881B029AB23D4B9A80FEF74EF9C7
:103E080003461A463A4B9B8813439AB2384B9A801A
:103E1800374B9B8845F2103293425BD04FF45A409F
:103E2800FEF7F4F8FEF73AF94FF45B40FEF7EEF8C8
:103E3800FEF734F903461A462D4B9A802C4B9B8883
:103E48001B029AB22A4B9A804FF45C40FEF7DEF8C8
:103E5800FEF724F903461A46254B9B8813439AB26A
:103E6800234B9A80224B9B88B3F5004F03D1204BFC
:103E780045F210529A801E4B9B8845F2105293428D
:103E880028D0A120FEF7C2F8FEF708F903461A4623
:103E9800174B9A80FEF702F903461A46144B9A808C
:103EA800134B9B881B029AB2114B9A80FEF7F6F8C7
:103EB80003461A460E4B9B8813439AB20C4B9A80C2
:103EC8000B4B9B8845F26172934203D1084B41F634
:103ED80063129A80064B9B8849F24132934240F024
:103EE8001F8107E00010024000100140000C014053
:103EF800A8000020CF20FEF789F80020FEF7AAF8D6
:103F0800C120FEF7A7F83020FEF7A4F8ED20FEF751
:103F18007DF86420FEF79EF80320FEF79BF8122038
:103F2800FEF798F88120FEF795F8E820FEF76EF87E
:103F38008520FEF78FF81020FEF78CF87A20FEF720
:103F480089F8CB20FEF762F83920FEF783F82C2099
:103F5800FEF780F80020FEF77DF83420FEF77AF8A7
:103F68000220FEF777F8F720FEF750F82020FEF73A
:103F780071F8EA20FEF74AF80020FEF76BF80020F7
:103F8800FEF768F8C020FEF741F81B20FEF762F83C
:103F9800C120FEF73BF80120FEF75CF8C520FEF7CC
:103FA80035F83020FEF756F83020FEF753F8C720D2
:103FB800FEF72CF8B720FEF74DF83620FEF726F866
:103FC8004820FEF747F83A20FEF720F85520FEF77C
:103FD80041F8B120FEF71AF80020FEF73BF81A2046
:103FE800FEF738F8B620FEF711F80A20FEF732F887
:103FF800A220FEF72FF8F220FEF708F80020FEF7BF
:1040080029F82620FEF702F80120FEF723F8E02021
:10401800FDF7FCFF0F20FEF71DF82A20FEF71AF81F
:104028002820FEF717F80820FEF714F80E20FEF7F0
:1040380011F80820FEF70EF85420FEF70BF8A92017
:10404800FEF708F84320FEF705F80A20FEF702F805
:104058000F20FDF7FFFF0020FDF7FCFF0020FDF714
:10406800F9FF0020FDF7F6FF0020FDF7F3FFE12040
:10407800FDF7CCFF0020FDF7EDFF1520FDF7EAFF67
:104088001720FDF7E7FF0720FDF7E4FF1120FDF7F4
:10409800E1FF0620FDF7DEFF2B20FDF7DBFF5620B2
:1040A800FDF7D8FF3C20FDF7D5FF0520FDF7D2FF2F
:1040B8001020FDF7CFFF0F20FDF7CCFF3F20FDF7C5
:1040C800C9FF3F20FDF7C6FF0F20FDF7C3FF2B20D8
:1040D800FDF79CFF0020FDF7BDFF0020FDF7BAFFAC
:1040E8000120FDF7B7FF3F20FDF7B4FF2A20FDF7B9
:1040F8008DFF0020FDF7AEFF0020FDF7ABFF00208D
:10410800FDF7A8FFEF20FDF7A5FF1120FDF77EFFC3
:104118007820FCF7D5FC2920FDF778FF03F0D8BC00
:10412800584B9B8846F60402934240F0AD8011201C
:10413800FDF76CFF1420FCF7C3FCD020FDF766FFE9
:104148000720FDF787FF4220FDF784FF1D20FDF7BC
:1041580081FFD120FDF75AFF0020FDF77BFF1A20D1
:10416800FDF778FF0920FDF775FFD220FDF74EFF18
:104178000120FDF76FFF2220FDF76CFFC020FDF73F
:1041880045FF1020FDF766FF3B20FDF763FF002089
:10419800FDF760FF0220FDF75DFF1120FDF75AFFD4
:1041A800C520FDF733FF0320FDF754FFC820FDF7B6
:1041B8002DFF0020FDF74EFF2520FDF74BFF2120A6
:1041C800FDF748FF0520FDF745FF0020FDF742FFFA
:1041D8000A20FDF73FFF6520FDF73CFF2520FDF78E
:1041E80039FF7720FDF736FF5020FDF733FF0F200A
:1041F800FDF730FF0020FDF72DFFF820FDF706FF43
:104208000120FDF727FFFE20FDF700FF0020FDF746
:1042180021FF0220FDF71EFF2020FDF7F7FE3620C4
:10422800FDF7F4FE0820FDF715FF3A20FDF7EEFE36
:104238005520FDF70FFF2B20FDF7E8FE0020FDF7C6
:1042480009FF0020FDF706FF0120FDF703FF3F20CF
:10425800FDF700FF2A20FDF7D9FE0020FDF7FAFE42
:104268000020FDF7F7FE0120FDF7F4FEDF20FDF743
:10427800F1FE7820FCF724FC2920FDF7C7FE03F0A7
:1042880027BC00BFA8000020034B9B8845F21032D2
:10429800934240F07C8701E0A8000020ED20FDF764
:1042A800B5FE0120FDF7D6FEFE20FDF7D3FEEE2079
:1042B800FDF7ACFEDE20FDF7CDFE2120FDF7CAFE9E
:1042C800F120FDF7A3FE0120FDF7C4FEDF20FDF776
:1042D8009DFE1020FDF7BEFEC420FDF797FE8F203F
:1042E800FDF7B8FEC620FDF791FE0020FDF7B2FEEF
:1042F800E220FDF7AFFEE220FDF7ACFEE220FDF77D
:10430800A9FEBF20FDF782FEAA20FDF7A3FEB0207C
:10431800FDF77CFE0D20FDF79DFE0020FDF79AFEBF
:104328000D20FDF797FE0020FDF794FE1120FDF704
:1043380091FE0020FDF78EFE1920FDF78BFE002070
:10434800FDF788FE2120FDF785FE0020FDF782FE9F
:104358002D20FDF77FFE0020FDF77CFE3D20FDF7B8
:1043680079FE0020FDF776FE5D20FDF773FE002044
:10437800FDF770FE5D20FDF76DFE0020FDF76AFE7B
:10438800B120FDF743FE8020FDF764FE0020FDF715
:1043980061FE8B20FDF75EFE0020FDF75BFE962098
:1043A800FDF758FE0020FDF755FEB220FDF72EFE62
:1043B8000020FDF74FFE0020FDF74CFE0220FDF720
:1043C80049FE0020FDF746FE0320FDF743FE0020CE
:1043D800FDF740FEB320FDF719FE0020FDF73AFE79
:1043E8000020FDF737FE0020FDF734FE0020FDF722
:1043F80031FE0020FDF72EFE0020FDF72BFE0020E9
:10440800FDF728FE0020FDF725FE0020FDF722FE1F
:104418000020FDF71FFE0020FDF71CFE0020FDF721
:1044280019FE0020FDF716FE0020FDF713FE002000
:10443800FDF710FE0020FDF70DFE0020FDF70AFE37
:104448000020FDF707FE0020FDF704FE0020FDF721
:1044580001FE0020FDF7FEFD0020FDF7FBFD00201A
:10446800FDF7F8FD0020FDF7F5FDB420FDF7CEFDC2
:104478008B20FDF7EFFD0020FDF7ECFD9620FDF702
:10448800E9FD0020FDF7E6FDA120FDF7E3FD002092
:10449800FDF7E0FDB520FDF7B9FD0220FDF7DAFDD7
:1044A8000020FDF7D7FD0320FDF7D4FD0020FDF720
:1044B800D1FD0420FDF7CEFD0020FDF7CBFDB62091
:1044C800FDF7A4FD0020FDF7C5FD0020FDF7C2FDA6
:1044D800B720FDF79BFD0020FDF7BCFD0020FDF790
:1044E800B9FD3F20FDF7B6FD0020FDF7B3FD5E20C6
:1044F800FDF7B0FD0020FDF7ADFD6420FDF7AAFD36
:104508000020FDF7A7FD8C20FDF7A4FD0020FDF796
:10451800A1FDAC20FDF79EFD0020FDF79BFDDC20F2
:10452800FDF798FD0020FDF795FD7020FDF792FD41
:104538000020FDF78FFD9020FDF78CFD0020FDF792
:1045480089FDEB20FDF786FD0020FDF783FDDC20CB
:10455800FDF780FD0020FDF77DFDB820FDF756FD35
:104568000020FDF777FD0020FDF774FD0020FDF722
:1045780071FD0020FDF76EFD0020FDF76BFD0020AA
:10458800FDF768FD0020FDF765FD0020FDF762FDE1
:10459800BA20FDF73BFD2420FDF75CFD0020FDF768
:1045A80059FD0020FDF756FD0020FDF753FDC12001
:1045B800FDF72CFD2020FDF74DFD0020FDF74AFDFD
:1045C8005420FDF747FD0020FDF744FDFF20FDF7CF
:1045D80041FD0020FDF73EFDC220FDF717FD0A2032
:1045E800FDF738FD0020FDF735FD0420FDF732FD0D
:1045F8000020FDF72FFDC320FDF708FD3C20FDF747
:1046080029FD0020FDF726FD3A20FDF723FD0020B7
:10461800FDF720FD3920FDF71DFD0020FDF71AFDEF
:104628003720FDF717FD0020FDF714FD3C20FDF7AE
:1046380011FD0020FDF70EFD3620FDF70BFD0020D3
:10464800FDF708FD3220FDF705FD0020FDF702FD0E
:104658002F20FDF7FFFC0020FDF7FCFC2C20FDF7C8
:10466800F9FC0020FDF7F6FC2920FDF7F3FC0020FB
:10467800FDF7F0FC2620FDF7EDFC0020FDF7EAFC35
:104688002420FDF7E7FC0020FDF7E4FC2420FDF7DB
:10469800E1FC0020FDF7DEFC2320FDF7DBFC002019
:1046A800FDF7D8FC3C20FDF7D5FC0020FDF7D2FC37
:1046B8003620FDF7CFFC0020FDF7CCFC3220FDF7BB
:1046C800C9FC0020FDF7C6FC2F20FDF7C3FC002025
:1046D800FDF7C0FC2C20FDF7BDFC0020FDF7BAFC5F
:1046E8002920FDF7B7FC0020FDF7B4FC2620FDF7D4
:1046F800B1FC0020FDF7AEFC2420FDF7ABFC002048
:10470800FDF7A8FC2420FDF7A5FC0020FDF7A2FC7E
:104718002320FDF79FFC0020FDF79CFCC420FDF73B
:1047280075FC6220FDF796FC0020FDF793FC052040
:10473800FDF790FC0020FDF78DFC8420FDF78AFC36
:104748000020FDF787FCF020FDF784FC0020FDF732
:1047580081FC1820FDF77EFC0020FDF77BFCA420DF
:10476800FDF778FC0020FDF775FC1820FDF772FCBA
:104778000020FDF76FFC5020FDF76CFC0020FDF7D2
:1047880069FC0C20FDF766FC0020FDF763FC172090
:10479800FDF760FC0020FDF75DFC9520FDF75AFC55
:1047A8000020FDF757FCF320FDF754FC0020FDF72F
:1047B80051FCE620FDF74EFC0020FDF74BFCC52020
:1047C800FDF724FC3220FDF745FC0020FDF742FCF4
:1047D8004420FDF73FFC0020FDF73CFC6520FDF779
:1047E80039FC0020FDF736FC7620FDF733FC00206D
:1047F800FDF730FC8820FDF72DFC0020FDF72AFC92
:10480800C620FDF703FC2020FDF724FC0020FDF75F
:1048180021FC1720FDF71EFC0020FDF71BFC0120E2
:10482800FDF718FC0020FDF715FCC720FDF7EEFB8F
:104838000020FDF70FFC0020FDF70CFC0020FDF721
:1048480009FC0020FDF706FCC820FDF7DFFB00206F
:10485800FDF700FC0020FDF7FDFB0020FDF7FAFB4B
:104868000020FDF7F7FBC920FDF7D0FB0020FDF77E
:10487800F1FB0020FDF7EEFB0020FDF7EBFB00202D
:10488800FDF7E8FB0020FDF7E5FB0020FDF7E2FB64
:104898000020FDF7DFFB0020FDF7DCFB0020FDF723
:1048A800D9FB0020FDF7D6FB0020FDF7D3FB002045
:1048B800FDF7D0FB0020FDF7CDFB0020FDF7CAFB7C
:1048C8000020FDF7C7FB0020FDF7C4FBE020FDF743
:1048D8009DFB1620FDF7BEFB0020FDF7BBFB1C204F
:1048E800FDF7B8FB0020FDF7B5FB2120FDF7B2FB73
:1048F8000020FDF7AFFB3620FDF7ACFB0020FDF7ED
:10490800A9FB4620FDF7A6FB0020FDF7A3FB5220DC
:10491800FDF7A0FB0020FDF79DFB6420FDF79AFB47
:104928000020FDF797FB7A20FDF794FB0020FDF7A8
:1049380091FB8B20FDF78EFB0020FDF78BFB992068
:10494800FDF788FB0020FDF785FBA820FDF782FB1B
:104958000020FDF77FFBB920FDF77CFB0020FDF769
:1049680079FBC420FDF776FB0020FDF773FBCA2016
:10497800FDF770FB0020FDF76DFBD220FDF76AFB09
:104988000020FDF767FBD920FDF764FB0020FDF749
:1049980061FBE020FDF75EFB0020FDF75BFBF320E9
:1049A800FDF758FB0020FDF755FBE120FDF72EFB36
:1049B8001620FDF74FFB0020FDF74CFB1C20FDF7F0
:1049C80049FB0020FDF746FB2220FDF743FB0020B2
:1049D800FDF740FB3620FDF73DFB0020FDF73AFBD5
:1049E8004520FDF737FB0020FDF734FB5220FDF78B
:1049F80031FB0020FDF72EFB6420FDF72BFB002088
:104A0800FDF728FB7A20FDF725FB0020FDF722FBA8
:104A18008B20FDF71FFB0020FDF71CFB9920FDF7FD
:104A280019FB0020FDF716FBA820FDF713FB00205B
:104A3800FDF710FBB920FDF70DFB0020FDF70AFB81
:104A4800C420FDF707FB0020FDF704FBCA20FDF793
:104A580001FB0020FDF7FEFAD220FDF7FBFA00204B
:104A6800FDF7F8FAD820FDF7F5FA0020FDF7F2FA7D
:104A7800E020FDF7EFFA0020FDF7ECFAF320FDF750
:104A8800E9FA0020FDF7E6FAE220FDF7BFFA052073
:104A9800FDF7E0FA0020FDF7DDFA0B20FDF7DAFA62
:104AA8000020FDF7D7FA1B20FDF7D4FA0020FDF708
:104AB800D1FA3420FDF7CEFA0020FDF7CBFA4420D6
:104AC800FDF7C8FA0020FDF7C5FA4F20FDF7C2FA36
:104AD8000020FDF7BFFA6120FDF7BCFA0020FDF7C2
:104AE800B9FA7920FDF7B6FA0020FDF7B3FA882065
:104AF800FDF7B0FA0020FDF7ADFA9720FDF7AAFA06
:104B08000020FDF7A7FAA620FDF7A4FA0020FDF77C
:104B1800A1FAB720FDF79EFA0020FDF79BFAC22004
:104B2800FDF798FA0020FDF795FAC720FDF792FAED
:104B38000020FDF78FFAD120FDF78CFA0020FDF751
:104B480089FAD620FDF786FA0020FDF783FADD20E2
:104B5800FDF780FA0020FDF77DFAF320FDF77AFAD9
:104B68000020FDF777FAE320FDF750FA0520FDF75E
:104B780071FA0020FDF76EFA0A20FDF76BFA0020A3
:104B8800FDF768FA1C20FDF765FA0020FDF762FAC8
:104B98003320FDF75FFA0020FDF75CFA4420FDF7AB
:104BA80059FA0020FDF756FA5020FDF753FA002075
:104BB800FDF750FA6220FDF74DFA0020FDF74AFA9A
:104BC8007820FDF747FA0020FDF744FA8820FDF722
:104BD80041FA0020FDF73EFA9720FDF73BFA002046
:104BE800FDF738FAA620FDF735FA0020FDF732FA6E
:104BF800B720FDF72FFA0020FDF72CFAC220FDF7A9
:104C080029FA0020FDF726FAC720FDF723FA00202D
:104C1800FDF720FAD120FDF71DFA0020FDF71AFA5A
:104C2800D520FDF717FA0020FDF714FADD20FDF76F
:104C380011FA0020FDF70EFAF320FDF70BFA002019
:104C4800FDF708FAE420FDF7E1F90120FDF702FA83
:104C58000020FDF7FFF90120FDF7FCF90020FDF722
:104C6800F9F90220FDF7F6F90020FDF7F3F92A20FB
:104C7800FDF7F0F90020FDF7EDF93C20FDF7EAF922
:104C88000020FDF7E7F94B20FDF7E4F90020FDF7D8
:104C9800E1F95D20FDF7DEF90020FDF7DBF974206E
:104CA800FDF7D8F90020FDF7D5F98420FDF7D2F9F2
:104CB8000020FDF7CFF99320FDF7CCF90020FDF790
:104CC800C9F9A220FDF7C6F90020FDF7C3F9B32002
:104CD800FDF7C0F90020FDF7BDF9BE20FDF7BAF9D0
:104CE8000020FDF7B7F9C420FDF7B4F90020FDF75F
:104CF800B1F9CD20FDF7AEF90020FDF7ABF9D320CF
:104D0800FDF7A8F90020FDF7A5F9DD20FDF7A2F9C8
:104D18000020FDF79FF9F320FDF79CF90020FDF72F
:104D280099F9E520FDF772F90020FDF793F90020C5
:104D3800FDF790F90020FDF78DF90020FDF78AF9BD
:104D48000220FDF787F90020FDF784F92920FDF7F7
:104D580081F90020FDF77EF93C20FDF77BF9002062
:104D6800FDF778F94B20FDF775F90020FDF772F98A
:104D78005D20FDF76FF90020FDF76CF97420FDF751
:104D880069F90020FDF766F98420FDF763F9002032
:104D9800FDF760F99320FDF75DF90020FDF75AF95A
:104DA800A220FDF757F90020FDF754F9B320FDF7CD
:104DB80051F90020FDF74EF9BE20FDF74BF9002010
:104DC800FDF748F9C420FDF745F90020FDF742F941
:104DD800CD20FDF73FF90020FDF73CF9D320FDF782
:104DE80039F90020FDF736F9DC20FDF733F900200A
:104DF800FDF730F9F320FDF72DF90020FDF72AF92A
:104E0800E620FDF703F91120FDF724F90020FDF74E
:104E180021F93420FDF71EF90020FDF71BF9562073
:104E2800FDF718F90020FDF715F97620FDF712F9BE
:104E38000020FDF70FF97720FDF70CF90020FDF7AA
:104E480009F96620FDF706F90020FDF703F9882027
:104E5800FDF700F90020FDF7FDF89920FDF7FAF8B5
:104E68000020FDF7F7F8BB20FDF7F4F80020FDF768
:104E7800F1F89920FDF7EEF80020FDF7EBF8662031
:104E8800FDF7E8F80020FDF7E5F85520FDF7E2F812
:104E98000020FDF7DFF85520FDF7DCF80020FDF7CE
:104EA800D9F84520FDF7D6F80020FDF7D3F84320C0
:104EB800FDF7D0F80020FDF7CDF84420FDF7CAF83B
:104EC8000020FDF7C7F8E720FDF7A0F83220FDF72E
:104ED800C1F80020FDF7BEF85520FDF7BBF800200B
:104EE800FDF7B8F87620FDF7B5F80020FDF7B2F821
:104EF8006620FDF7AFF80020FDF7ACF86720FDF756
:104F0800A9F80020FDF7A6F86720FDF7A3F8002010
:104F1800FDF7A0F88720FDF79DF80020FDF79AF827
:104F28009920FDF797F80020FDF794F8BB20FDF7CE
:104F380091F80020FDF78EF89920FDF78BF80020F6
:104F4800FDF788F87720FDF785F80020FDF782F84F
:104F58004420FDF77FF80020FDF77CF85620FDF788
:104F680079F80020FDF776F82320FDF773F8002084
:104F7800FDF770F83320FDF76DF80020FDF76AF8AB
:104F88004520FDF767F80020FDF764F8E820FDF7F5
:104F98003DF80020FDF75EF80020FDF75BF899204A
:104FA800FDF758F80020FDF755F88720FDF752F86F
:104FB8000020FDF74FF88820FDF74CF80020FDF79A
:104FC80049F87720FDF746F80020FDF743F86620FA
:104FD800FDF740F80020FDF73DF88820FDF73AF886
:104FE8000020FDF737F8AA20FDF734F80020FDF778
:104FF80031F8BB20FDF72EF80020FDF72BF899209B
:10500800FDF728F80020FDF725F86620FDF722F8BF
:105018000020FDF71FF85520FDF71CF80020FDF7CC
:1050280019F85520FDF716F80020FDF713F844206D
:10503800FDF710F80020FDF70DF84420FDF70AF8F9
:105048000020FDF707F85520FDF704F80020FDF7CC
:1050580001F8E920FCF7DAFFAA20FCF7FBFF0020A3
:10506800FCF7F8FF0020FCF7F5FF0020FCF7F2FF43
:105078000020FCF7CBFFAA20FCF7ECFFCF20FCF7C1
:10508800C5FF0020FCF7E6FF0020FCF7E3FF002047
:10509800FCF7E0FF0020FCF7DDFF0020FCF7DAFF5B
:1050A8000020FCF7D7FF0020FCF7D4FF0020FCF716
:1050B800D1FF0020FCF7CEFF0020FCF7CBFF00203B
:1050C800FCF7C8FF0020FCF7C5FF0020FCF7C2FF73
:1050D8000020FCF7BFFF0020FCF7BCFF0020FCF716
:1050E800B9FF0020FCF7B6FFF020FCF78FFF002087
:1050F800FCF7B0FF5020FCF7ADFF0020FCF7AAFF3B
:105108000020FCF7A7FF0020FCF7A4FFF320FCF722
:105118007DFF0020FCF79EFFF920FCF777FF0620B3
:10512800FCF798FF1020FCF795FF2920FCF792FF69
:105138000020FCF78FFF3A20FCF768FF5520FCF7AA
:1051480089FF1120FCF762FF6420FBF7B9FC2920D6
:10515800FCF75CFF3520FCF759FF0020FCF77AFFCD
:105168005120FCF753FFFF20FCF774FF5320FCF796
:105178004DFF2C20FCF76EFF5520FCF747FF8220DF
:10518800FCF768FF2C20FCF741FF02F0A1BC044BA0
:105198009B8845F21052934240F0828702E000BF9C
:1051A800A800002055214FF47040FCF7BBFFAA214E
:1051B8004FF20100FCF7B6FF52214FF20200FCF754
:1051C800B1FF08214FF20300FCF7ACFF01214FF2B9
:1051D8000400FCF7A7FF0D214FF43040FCF7A2FFB5
:1051E8000D214BF20100FCF79DFF0D214BF202004F
:1051F800FCF798FF34214FF43640FCF793FF342135
:105208004BF20160FCF78EFF34214BF20260FCF791
:1052180089FF0D214FF43140FCF784FF0D214BF23B
:105228000110FCF77FFF0D214BF20210FCF77AFF0B
:1052380034214FF43740FCF775FF34214BF20170ED
:10524800FCF770FF34214BF20270FCF76BFF002172
:105258004FF43240FCF766FF00214BF20120FCF7C7
:1052680061FF00214BF20220FCF75CFF24214FF480
:105278003840FCF757FF24214BF60100FCF752FF9A
:1052880024214BF60200FCF74DFF01214FF43F406B
:10529800FCF748FF0F214FF43340FCF743FF0F2181
:1052A8004BF20130FCF73EFF0F214BF20230FCF7C6
:1052B80039FF34214FF43940FCF734FF34214BF6E1
:1052C8000110FCF72FFF34214BF60210FCF72AFFE0
:1052D80008214FF43540FCF725FF08214BF2015017
:1052E800FCF720FF08214BF20250FCF71BFF0321BB
:1052F8004FF44240FCF716FF24214FF43A40FCF7E4
:1053080011FF24214BF60120FCF70CFF24214BF65A
:105318000220FCF707FF00214FF43C40FCF702FF96
:1053280078214BF60140FCF7FDFE00214BF60240C8
:10533800FCF7F8FE00214FF43D40FCF7F3FE78211E
:105348004BF60150FCF7EEFE00214BF60250FCF73D
:10535800E9FE00214FF43E40FCF7E4FE64214BF6E1
:105368000160FCF7DFFE00214FF45140FCF7DAFE44
:1053780033214DF20110FCF7D5FE00214DF2021049
:10538800FCF7D0FE34214DF20310FCF7CBFE0021D0
:105398004DF20410FCF7C6FE3A214DF20510FCF759
:1053A800C1FE00214DF20610FCF7BCFE4A214DF269
:1053B8000710FCF7B7FE00214DF20810FCF7B2FE0B
:1053C8005C214DF20910FCF7ADFE00214DF20A10E8
:1053D800FCF7A8FE81214DF20B10FCF7A3FE00217B
:1053E8004DF20C10FCF79EFEA6214DF20D10FCF7B5
:1053F80099FE00214DF20E10FCF794FEE5214DF2C6
:105408000F10FCF78FFE01214DF21010FCF78AFEF9
:1054180013214DF21110FCF785FE01214DF21210F7
:10542800FCF780FE54214DF21310FCF77BFE01219E
:105438004DF21410FCF776FE82214DF21510FCF7A0
:1054480071FE01214DF21610FCF76CFECA214DF2D7
:105458001710FCF767FE02214DF21810FCF762FEE8
:1054680000214DF21910FCF75DFE02214DF21A10D1
:10547800FCF758FE01214DF21B10FCF753FE0221E8
:105488004DF21C10FCF74EFE34214DF21D10FCF7B6
:1054980049FE02214DF21E10FCF744FE67214DF231
:1054A8001F10FCF73FFE02214DF22010FCF73AFED8
:1054B80084214DF22110FCF735FE02214DF2221015
:1054C800FCF730FEA4214DF22310FCF72BFE02213D
:1054D8004DF22410FCF726FEB7214DF22510FCF7FB
:1054E80021FE02214DF22610FCF71CFECF214DF2C1
:1054F8002710FCF717FE02214DF22810FCF712FEC8
:10550800DE214DF22910FCF70DFE02214DF22A1082
:10551800FCF708FEF2214DF22B10FCF703FE0221E6
:105528004DF22C10FCF7FEFDFE214DF22D10FCF77C
:10553800F9FD03214DF22E10FCF7F4FD10214DF278
:105548002F10FCF7EFFD03214DF23010FCF7EAFDB8
:1055580033214DF23110FCF7E5FD03214DF23210F5
:10556800FCF7E0FD6D214DF23310FCF7DBFD002167
:105578004FF45240FCF7D6FD33214DF20120FCF7E1
:10558800D1FD00214DF20220FCF7CCFD34214DF273
:105598000320FCF7C7FD00214DF20420FCF7C2FDF3
:1055A8003A214DF20520FCF7BDFD00214DF2062001
:1055B800FCF7B8FD4A214DF20720FCF7B3FD0021A6
:1055C8004DF20820FCF7AEFD5C214DF20920FCF7F6
:1055D800A9FD00214DF20A20FCF7A4FD81214DF21E
:1055E8000B20FCF79FFD00214DF20C20FCF79AFDE3
:1055F800A6214DF20D20FCF795FD00214DF20E205D
:10560800FCF790FDE5214DF20F20FCF78BFD012101
:105618004DF21020FCF786FD13214DF21120FCF706
:1056280081FD01214DF21220FCF77CFD54214DF241
:105638001320FCF777FD01214DF21420FCF772FDD1
:1056480082214DF21520FCF76DFD01214DF2162047
:10565800FCF768FDCA214DF21720FCF763FD022113
:105668004DF21820FCF75EFD00214DF21920FCF7E1
:1056780059FD02214DF21A20FCF754FD01214DF28B
:105688001B20FCF74FFD02214DF21C20FCF74AFDC0
:1056980034214DF21D20FCF745FD02214DF21E205C
:1056A800FCF740FD67214DF21F20FCF73BFD02216E
:1056B8004DF22020FCF736FD84214DF22120FCF725
:1056C80031FD02214DF22220FCF72CFDA4214DF2E0
:1056D8002320FCF727FD02214DF22420FCF722FDB0
:1056E800B7214DF22520FCF71DFD02214DF22620A1
:1056F800FCF718FDCF214DF22720FCF713FD0221FE
:105708004DF22820FCF70EFDDE214DF22920FCF792
:1057180009FD02214DF22A20FCF704FDF2214DF289
:105728002B20FCF7FFFC02214DF22C20FCF7FAFCA1
:10573800FE214DF22D20FCF7F5FC03214DF22E2021
:10574800FCF7F0FC10214DF22F20FCF7EBFC0321B5
:105758004DF23020FCF7E6FC33214DF23120FCF706
:10576800E1FC03214DF23220FCF7DCFC6D214DF207
:105778003320FCF7D7FC00214FF45340FCF7D2FC50
:1057880033214DF20130FCF7CDFC00214DF20230FF
:10579800FCF7C8FC34214DF20330FCF7C3FC0021B0
:1057A8004DF20430FCF7BEFC3A214DF20530FCF70F
:1057B800B9FC00214DF20630FCF7B4FC4A214DF249
:1057C8000730FCF7AFFC00214DF20830FCF7AAFCCB
:1057D8005C214DF20930FCF7A5FC00214DF20A309E
:1057E800FCF7A0FC81214DF20B30FCF79BFC00215B
:1057F8004DF20C30FCF796FCA6214DF20D30FCF76B
:1058080091FC00214DF20E30FCF78CFCE5214DF2A5
:105818000F30FCF787FC01214DF21030FCF782FCB9
:1058280013214DF21130FCF77DFC01214DF21230AD
:10583800FCF778FC54214DF21330FCF773FC01217E
:105848004DF21430FCF76EFC82214DF21530FCF756
:1058580069FC01214DF21630FCF764FCCA214DF2B7
:105868001730FCF75FFC02214DF21830FCF75AFCA8
:1058780000214DF21930FCF755FC02214DF21A3087
:10588800FCF750FC01214DF21B30FCF74BFC0221C8
:105898004DF21C30FCF746FC34214DF21D30FCF76C
:1058A80041FC02214DF21E30FCF73CFC67214DF211
:1058B8001F30FCF737FC02214DF22030FCF732FC98
:1058C80084214DF22130FCF72DFC02214DF22230CB
:1058D800FCF728FCA4214DF22330FCF723FC02211D
:1058E8004DF22430FCF71EFCB7214DF22530FCF7B1
:1058F80019FC02214DF22630FCF714FCCF214DF2A1
:105908002730FCF70FFC02214DF22830FCF70AFC87
:10591800DE214DF22930FCF705FC02214DF22A3038
:10592800FCF700FCF2214DF22B30FCF7FBFB0221C7
:105938004DF22C30FCF7F6FBFE214DF22D30FCF732
:10594800F1FB03214DF22E30FCF7ECFB10214DF258
:105958002F30FCF7E7FB03214DF23030FCF7E2FB78
:1059680033214DF23130FCF7DDFB03214DF23230AB
:10597800FCF7D8FB6D214DF23330FCF7D3FB002147
:105988004FF45440FCF7CEFB33214DF20140FCF7B5
:10599800C9FB00214DF20240FCF7C4FB34214DF253
:1059A8000340FCF7BFFB00214DF20440FCF7BAFBB3
:1059B8003A214DF20540FCF7B5FB00214DF20640B7
:1059C800FCF7B0FB4A214DF20740FCF7ABFB002186
:1059D8004DF20840FCF7A6FB5C214DF20940FCF7AC
:1059E800A1FB00214DF20A40FCF79CFB81214DF2FE
:1059F8000B40FCF797FB00214DF20C40FCF792FBA3
:105A0800A6214DF20D40FCF78DFB00214DF20E4012
:105A1800FCF788FBE5214DF20F40FCF783FB0121E1
:105A28004DF21040FCF77EFB13214DF21140FCF7BC
:105A380079FB01214DF21240FCF774FB54214DF221
:105A48001340FCF76FFB01214DF21440FCF76AFB91
:105A580082214DF21540FCF765FB01214DF21640FD
:105A6800FCF760FBCA214DF21740FCF75BFB0221F3
:105A78004DF21840FCF756FB00214DF21940FCF797
:105A880051FB02214DF21A40FCF74CFB01214DF26B
:105A98001B40FCF747FB02214DF21C40FCF742FB80
:105AA80034214DF21D40FCF73DFB02214DF21E4012
:105AB800FCF738FB67214DF21F40FCF733FB02214E
:105AC8004DF22040FCF72EFB84214DF22140FCF7DB
